:100000000C942A000C9447000C9447000C94470071
:100010000C9447000C9447000C9447000C94470044
:100020000C9447000C9447000C9447000C94470034
:100030000C946E000C9447000C9447000C944700FD
:100040000C9447000C9447000C9447000C94470014
:100050000C94470011241FBECFE5D8E0DEBFCDBF12
:1000600010E0A0E6B0E0EAEBF1E002C005900D92EE
:10007000A038B107D9F720E0A0E8B0E001C01D9298
:10008000A43CB207E1F70E9461000C94DB000C94E1
:100090000000CF93DF93CDB7DEB787E390E0FC019C
:1000A000208187E390E02064FC0120838DE290E0D2
:1000B00020ECFC0120831092C3000000DF91CF915F
:1000C0000895CF93DF930F92CDB7DEB719820E94C8
:1000D0004900789489818F5F8983FCCF1F920F92AA
:1000E0000FB60F9211242F933F938F939F93EF930B
:1000F000FF93CF93DF93CDB7DEB78091C3008130FC
:1001000049F48FE290E0FC0180818093C00082E09E
:100110008093C3008091C300823001F58091C000BC
:10012000882331F08091C00081508093C00002C0CC
:100130001092C3002091C1003091C2008FE290E084
:10014000F9012081FC0120838091C1009091C200BF
:1001500001969093C2008093C10020C08091C3009B
:100160008823E1F48FE290E0FC018081813079F412
:1001700080E690E09093C2008093C10081E080937C
:10018000C3008FE290E021E0FC01208307C08FE2F2
:1001900090E022E0FC0120831092C300DF91CF9118
:1001A000FF91EF919F918F913F912F910F900FBEF3
:0A01B0000F901F901895F894FFCFF0
:1001BA0068616C6C6968616C6C6F0000000000001B
:1001CA000000000000000000000000000000000025
:00000001FF
